{
  "_format": "hh-sol-artifact-1",
  "contractName": "Voting",
  "sourceName": "contracts/Voting.sol",
  "abi": [
    {
      "inputs": [
        {
          "internalType": "string[]",
          "name": "_candidateNames",
          "type": "string[]"
        },
        {
          "internalType": "uint256",
          "name": "_durationInMinutes",
          "type": "uint256"
        }
      ],
      "stateMutability": "nonpayable",
      "type": "constructor"
    },
    {
      "inputs": [
        {
          "internalType": "string",
          "name": "_name",
          "type": "string"
        },
        {
          "internalType": "string",
          "name": "_idno",
          "type": "string"
        },
        {
          "internalType": "uint256",
          "name": "_pincode",
          "type": "uint256"
        }
      ],
      "name": "addCandidate",
      "outputs": [],
      "stateMutability": "nonpayable",
      "type": "function"
    },
    {
      "inputs": [
        {
          "internalType": "uint256",
          "name": "",
          "type": "uint256"
        }
      ],
      "name": "candidates",
      "outputs": [
        {
          "internalType": "string",
          "name": "name",
          "type": "string"
        },
        {
          "internalType": "uint256",
          "name": "voteCount",
          "type": "uint256"
        },
        {
          "internalType": "string",
          "name": "idno",
          "type": "string"
        },
        {
          "internalType": "uint256",
          "name": "pincode",
          "type": "uint256"
        }
      ],
      "stateMutability": "view",
      "type": "function"
    },
    {
      "inputs": [],
      "name": "getAllVotesOfCandidates",
      "outputs": [
        {
          "components": [
            {
              "internalType": "string",
              "name": "name",
              "type": "string"
            },
            {
              "internalType": "uint256",
              "name": "voteCount",
              "type": "uint256"
            },
            {
              "internalType": "string",
              "name": "idno",
              "type": "string"
            },
            {
              "internalType": "uint256",
              "name": "pincode",
              "type": "uint256"
            }
          ],
          "internalType": "struct Voting.Candidate[]",
          "name": "",
          "type": "tuple[]"
        }
      ],
      "stateMutability": "view",
      "type": "function"
    },
    {
      "inputs": [],
      "name": "getRemainingTime",
      "outputs": [
        {
          "internalType": "uint256",
          "name": "",
          "type": "uint256"
        }
      ],
      "stateMutability": "view",
      "type": "function"
    },
    {
      "inputs": [],
      "name": "getVotingStatus",
      "outputs": [
        {
          "internalType": "bool",
          "name": "",
          "type": "bool"
        }
      ],
      "stateMutability": "view",
      "type": "function"
    },
    {
      "inputs": [
        {
          "internalType": "uint256",
          "name": "_candidateIndex",
          "type": "uint256"
        }
      ],
      "name": "removeCandidate",
      "outputs": [],
      "stateMutability": "nonpayable",
      "type": "function"
    },
    {
      "inputs": [
        {
          "internalType": "uint256",
          "name": "_candidateIndex",
          "type": "uint256"
        }
      ],
      "name": "vote",
      "outputs": [],
      "stateMutability": "nonpayable",
      "type": "function"
    },
    {
      "inputs": [
        {
          "internalType": "address",
          "name": "",
          "type": "address"
        }
      ],
      "name": "voters",
      "outputs": [
        {
          "internalType": "bool",
          "name": "",
          "type": "bool"
        }
      ],
      "stateMutability": "view",
      "type": "function"
    },
    {
      "inputs": [],
      "name": "votingEnd",
      "outputs": [
        {
          "internalType": "uint256",
          "name": "",
          "type": "uint256"
        }
      ],
      "stateMutability": "view",
      "type": "function"
    },
    {
      "inputs": [],
      "name": "votingStart",
      "outputs": [
        {
          "internalType": "uint256",
          "name": "",
          "type": "uint256"
        }
      ],
      "stateMutability": "view",
      "type": "function"
    }
  ],
  "bytecode": "0x60806040523480156200001157600080fd5b5060405162001c4b38038062001c4b83398181016040528101906200003791906200051f565b60005b825181101562000128576000604051806080016040528085848151811062000067576200006662000585565b5b6020026020010151815260200160008152602001604051806020016040528060008152508152602001600081525090806001815401808255809150506001900390600052602060002090600402016000909190919091506000820151816000019080519060200190620000dc9291906200019b565b50602082015181600101556040820151816002019080519060200190620001059291906200019b565b5060608201518160030155505080806200011f90620005e3565b9150506200003a565b5033600160006101000a81548173ffffffffffffffffffffffffffffffffffffffff021916908373ffffffffffffffffffffffffffffffffffffffff16021790555042600381905550603c8162000180919062000631565b426200018d919062000692565b600481905550505062000754565b828054620001a9906200071e565b90600052602060002090601f016020900481019282620001cd576000855562000219565b82601f10620001e857805160ff191683800117855562000219565b8280016001018555821562000219579182015b8281111562000218578251825591602001919060010190620001fb565b5b5090506200022891906200022c565b5090565b5b80821115620002475760008160009055506001016200022d565b5090565b6000604051905090565b600080fd5b600080fd5b600080fd5b6000601f19601f8301169050919050565b7f4e487b7100000000000000000000000000000000000000000000000000000000600052604160045260246000fd5b620002af8262000264565b810181811067ffffffffffffffff82111715620002d157620002d062000275565b5b80604052505050565b6000620002e66200024b565b9050620002f48282620002a4565b919050565b600067ffffffffffffffff82111562000317576200031662000275565b5b602082029050602081019050919050565b600080fd5b600080fd5b600067ffffffffffffffff82111562000350576200034f62000275565b5b6200035b8262000264565b9050602081019050919050565b60005b83811015620003885780820151818401526020810190506200036b565b8381111562000398576000848401525b50505050565b6000620003b5620003af8462000332565b620002da565b905082815260208101848484011115620003d457620003d36200032d565b5b620003e184828562000368565b509392505050565b600082601f8301126200040157620004006200025f565b5b8151620004138482602086016200039e565b91505092915050565b6000620004336200042d84620002f9565b620002da565b9050808382526020820190506020840283018581111562000459576200045862000328565b5b835b81811015620004a757805167ffffffffffffffff8111156200048257620004816200025f565b5b808601620004918982620003e9565b855260208501945050506020810190506200045b565b5050509392505050565b600082601f830112620004c957620004c86200025f565b5b8151620004db8482602086016200041c565b91505092915050565b6000819050919050565b620004f981620004e4565b81146200050557600080fd5b50565b6000815190506200051981620004ee565b92915050565b6000806040838503121562000539576200053862000255565b5b600083015167ffffffffffffffff8111156200055a57620005596200025a565b5b6200056885828601620004b1565b92505060206200057b8582860162000508565b9150509250929050565b7f4e487b7100000000000000000000000000000000000000000000000000000000600052603260045260246000fd5b7f4e487b7100000000000000000000000000000000000000000000000000000000600052601160045260246000fd5b6000620005f082620004e4565b91507fffffffffffffffffffffffffffffffffffffffffffffffffffffffffffffffff821415620006265762000625620005b4565b5b600182019050919050565b60006200063e82620004e4565b91506200064b83620004e4565b9250817fffffffffffffffffffffffffffffffffffffffffffffffffffffffffffffffff0483118215151615620006875762000686620005b4565b5b828202905092915050565b60006200069f82620004e4565b9150620006ac83620004e4565b9250827fffffffffffffffffffffffffffffffffffffffffffffffffffffffffffffffff03821115620006e457620006e3620005b4565b5b828201905092915050565b7f4e487b7100000000000000000000000000000000000000000000000000000000600052602260045260246000fd5b600060028204905060018216806200073757607f821691505b602082108114156200074e576200074d620006ef565b5b50919050565b6114e780620007646000396000f3fe608060405234801561001057600080fd5b506004361061009e5760003560e01c8063581c281c11610066578063581c281c1461014857806385a386351461016657806390a9ab9014610184578063a3ec138d146101a2578063efb98bcf146101d25761009e565b80630121b93f146100a357806309e9d7e2146100bf578063101158af146100db5780633477ee2e146100f95780633ca09fdf1461012c575b600080fd5b6100bd60048036038101906100b89190610bd5565b6101f0565b005b6100d960048036038101906100d49190610bd5565b6103ac565b005b6100e3610585565b6040516100f09190610c11565b60405180910390f35b610113600480360381019061010e9190610bd5565b61058b565b6040516101239493929190610cc5565b60405180910390f35b61014660048036038101906101419190610e4d565b6106db565b005b6101506107d7565b60405161015d9190610ef3565b60405180910390f35b61016e6107f1565b60405161017b9190610c11565b60405180910390f35b61018c6107f7565b6040516101999190611093565b60405180910390f35b6101bc60048036038101906101b79190611113565b61098e565b6040516101c99190610ef3565b60405180910390f35b6101da6109ae565b6040516101e79190610c11565b60405180910390f35b600260003373ffffffffffffffffffffffffffffffffffffffff1673ffffffffffffffffffffffffffffffffffffffff16815260200190815260200160002060009054906101000a900460ff161561027d576040517f08c379a00000000000000000000000000000000000000000000000000000000081526004016102749061118c565b60405180910390fd5b60008054905081106102c4576040517f08c379a00000000000000000000000000000000000000000000000000000000081526004016102bb906111f8565b60405180910390fd5b60035442101580156102d7575060045442105b610316576040517f08c379a000000000000000000000000000000000000000000000000000000000815260040161030d90611264565b60405180910390fd5b6000818154811061032a57610329611284565b5b9060005260206000209060040201600101600081548092919061034c906112e2565b91905055506001600260003373ffffffffffffffffffffffffffffffffffffffff1673ffffffffffffffffffffffffffffffffffffffff16815260200190815260200160002060006101000a81548160ff02191690831515021790555050565b600160009054906101000a900473ffffffffffffffffffffffffffffffffffffffff1673ffffffffffffffffffffffffffffffffffffffff163373ffffffffffffffffffffffffffffffffffffffff161461040657600080fd5b600080549050811061044d576040517f08c379a0000000000000000000000000000000000000000000000000000000008152600401610444906111f8565b60405180910390fd5b60008190505b6001600080549050610465919061132b565b81101561052657600060018261047b919061135f565b8154811061048c5761048b611284565b5b9060005260206000209060040201600082815481106104ae576104ad611284565b5b906000526020600020906004020160008201816000019080546104d0906113e4565b6104db929190610a1b565b506001820154816001015560028201816002019080546104fa906113e4565b610505929190610a1b565b5060038201548160030155905050808061051e906112e2565b915050610453565b50600080548061053957610538611416565b5b60019003818190600052602060002090600402016000808201600061055e9190610aa8565b60018201600090556002820160006105769190610aa8565b60038201600090555050905550565b60035481565b6000818154811061059b57600080fd5b90600052602060002090600402016000915090508060000180546105be906113e4565b80601f01602080910402602001604051908101604052809291908181526020018280546105ea906113e4565b80156106375780601f1061060c57610100808354040283529160200191610637565b820191906000526020600020905b81548152906001019060200180831161061a57829003601f168201915b505050505090806001015490806002018054610652906113e4565b80601f016020809104026020016040519081016040528092919081815260200182805461067e906113e4565b80156106cb5780601f106106a0576101008083540402835291602001916106cb565b820191906000526020600020905b8154815290600101906020018083116106ae57829003601f168201915b5050505050908060030154905084565b600160009054906101000a900473ffffffffffffffffffffffffffffffffffffffff1673ffffffffffffffffffffffffffffffffffffffff163373ffffffffffffffffffffffffffffffffffffffff161461073557600080fd5b6000604051806080016040528085815260200160008152602001848152602001838152509080600181540180825580915050600190039060005260206000209060040201600090919091909150600082015181600001908051906020019061079e929190610ae8565b506020820151816001015560408201518160020190805190602001906107c5929190610ae8565b50606082015181600301555050505050565b600060035442101580156107ec575060045442105b905090565b60045481565b60606000805480602002602001604051908101604052809291908181526020016000905b82821015610985578382906000526020600020906004020160405180608001604052908160008201805461084e906113e4565b80601f016020809104026020016040519081016040528092919081815260200182805461087a906113e4565b80156108c75780601f1061089c576101008083540402835291602001916108c7565b820191906000526020600020905b8154815290600101906020018083116108aa57829003601f168201915b50505050508152602001600182015481526020016002820180546108ea906113e4565b80601f0160208091040260200160405190810160405280929190818152602001828054610916906113e4565b80156109635780601f1061093857610100808354040283529160200191610963565b820191906000526020600020905b81548152906001019060200180831161094657829003601f168201915b505050505081526020016003820154815250508152602001906001019061081b565b50505050905090565b60026020528060005260406000206000915054906101000a900460ff1681565b60006003544210156109f5576040517f08c379a00000000000000000000000000000000000000000000000000000000081526004016109ec90611491565b60405180910390fd5b6004544210610a075760009050610a18565b42600454610a15919061132b565b90505b90565b828054610a27906113e4565b90600052602060002090601f016020900481019282610a495760008555610a97565b82601f10610a5a5780548555610a97565b82800160010185558215610a9757600052602060002091601f016020900482015b82811115610a96578254825591600101919060010190610a7b565b5b509050610aa49190610b6e565b5090565b508054610ab4906113e4565b6000825580601f10610ac65750610ae5565b601f016020900490600052602060002090810190610ae49190610b6e565b5b50565b828054610af4906113e4565b90600052602060002090601f016020900481019282610b165760008555610b5d565b82601f10610b2f57805160ff1916838001178555610b5d565b82800160010185558215610b5d579182015b82811115610b5c578251825591602001919060010190610b41565b5b509050610b6a9190610b6e565b5090565b5b80821115610b87576000816000905550600101610b6f565b5090565b6000604051905090565b600080fd5b600080fd5b6000819050919050565b610bb281610b9f565b8114610bbd57600080fd5b50565b600081359050610bcf81610ba9565b92915050565b600060208284031215610beb57610bea610b95565b5b6000610bf984828501610bc0565b91505092915050565b610c0b81610b9f565b82525050565b6000602082019050610c266000830184610c02565b92915050565b600081519050919050565b600082825260208201905092915050565b60005b83811015610c66578082015181840152602081019050610c4b565b83811115610c75576000848401525b50505050565b6000601f19601f8301169050919050565b6000610c9782610c2c565b610ca18185610c37565b9350610cb1818560208601610c48565b610cba81610c7b565b840191505092915050565b60006080820190508181036000830152610cdf8187610c8c565b9050610cee6020830186610c02565b8181036040830152610d008185610c8c565b9050610d0f6060830184610c02565b95945050505050565b600080fd5b600080fd5b7f4e487b7100000000000000000000000000000000000000000000000000000000600052604160045260246000fd5b610d5a82610c7b565b810181811067ffffffffffffffff82111715610d7957610d78610d22565b5b80604052505050565b6000610d8c610b8b565b9050610d988282610d51565b919050565b600067ffffffffffffffff821115610db857610db7610d22565b5b610dc182610c7b565b9050602081019050919050565b82818337600083830152505050565b6000610df0610deb84610d9d565b610d82565b905082815260208101848484011115610e0c57610e0b610d1d565b5b610e17848285610dce565b509392505050565b600082601f830112610e3457610e33610d18565b5b8135610e44848260208601610ddd565b91505092915050565b600080600060608486031215610e6657610e65610b95565b5b600084013567ffffffffffffffff811115610e8457610e83610b9a565b5b610e9086828701610e1f565b935050602084013567ffffffffffffffff811115610eb157610eb0610b9a565b5b610ebd86828701610e1f565b9250506040610ece86828701610bc0565b9150509250925092565b60008115159050919050565b610eed81610ed8565b82525050565b6000602082019050610f086000830184610ee4565b92915050565b600081519050919050565b600082825260208201905092915050565b6000819050602082019050919050565b600082825260208201905092915050565b6000610f5682610c2c565b610f608185610f3a565b9350610f70818560208601610c48565b610f7981610c7b565b840191505092915050565b610f8d81610b9f565b82525050565b60006080830160008301518482036000860152610fb08282610f4b565b9150506020830151610fc56020860182610f84565b5060408301518482036040860152610fdd8282610f4b565b9150506060830151610ff26060860182610f84565b508091505092915050565b60006110098383610f93565b905092915050565b6000602082019050919050565b600061102982610f0e565b6110338185610f19565b93508360208202850161104585610f2a565b8060005b8581101561108157848403895281516110628582610ffd565b945061106d83611011565b925060208a01995050600181019050611049565b50829750879550505050505092915050565b600060208201905081810360008301526110ad818461101e565b905092915050565b600073ffffffffffffffffffffffffffffffffffffffff82169050919050565b60006110e0826110b5565b9050919050565b6110f0816110d5565b81146110fb57600080fd5b50565b60008135905061110d816110e7565b92915050565b60006020828403121561112957611128610b95565b5b6000611137848285016110fe565b91505092915050565b7f596f75206861766520616c726561647920766f7465642e000000000000000000600082015250565b6000611176601783610c37565b915061118182611140565b602082019050919050565b600060208201905081810360008301526111a581611169565b9050919050565b7f496e76616c69642063616e64696461746520696e646578000000000000000000600082015250565b60006111e2601783610c37565b91506111ed826111ac565b602082019050919050565b60006020820190508181036000830152611211816111d5565b9050919050565b7f566f74696e67206973206e6f74206f70656e2e00000000000000000000000000600082015250565b600061124e601383610c37565b915061125982611218565b602082019050919050565b6000602082019050818103600083015261127d81611241565b9050919050565b7f4e487b7100000000000000000000000000000000000000000000000000000000600052603260045260246000fd5b7f4e487b7100000000000000000000000000000000000000000000000000000000600052601160045260246000fd5b60006112ed82610b9f565b91507fffffffffffffffffffffffffffffffffffffffffffffffffffffffffffffffff8214156113205761131f6112b3565b5b600182019050919050565b600061133682610b9f565b915061134183610b9f565b925082821015611354576113536112b3565b5b828203905092915050565b600061136a82610b9f565b915061137583610b9f565b9250827fffffffffffffffffffffffffffffffffffffffffffffffffffffffffffffffff038211156113aa576113a96112b3565b5b828201905092915050565b7f4e487b7100000000000000000000000000000000000000000000000000000000600052602260045260246000fd5b600060028204905060018216806113fc57607f821691505b602082108114156114105761140f6113b5565b5b50919050565b7f4e487b7100000000000000000000000000000000000000000000000000000000600052603160045260246000fd5b7f566f74696e6720686173206e6f742073746172746564207965742e0000000000600082015250565b600061147b601b83610c37565b915061148682611445565b602082019050919050565b600060208201905081810360008301526114aa8161146e565b905091905056fea2646970667358221220634a38c16b05e7b7d8edc2dadb94b2a80d4715196372dbc5feb0d7bf6f68905564736f6c634300080b0033",
  "linkReferences": {},
  "deployedLinkReferences": {}
}